:100000009FC167CEB8C1B7C1B6C1B5C1B4C1B3C194
:10001000B2C1B1C1B0C1AFC1AEC114CFACC1ABC1EF
:10002000AAC1A9C1A8C1A7C1A6C1A5C1A4C1A3C194
:10003000A2C1A1C100000000006440301210383895
:100040000000000038103838087C187C3838001060
:10005000083820007C387838787C7C384438044470
:1000600040444438783878387C44444444447810D8
:100070000000000000000000000000000000000080
:100080000000100020482824080000380000006408
:1000900044483C386C6C0000000444304444184030
:1000A000200444440010107C1040824444444440E6
:1000B000404444100448406C644444444444104464
:1000C0004444444408383C084010042078000000B0
:1000D0000000407812000000100410C810261040E4
:1000E00000440000000828307C7C4C5400000008CC
:1000F00044100404284040084444301020440820A0
:100100003844444044404040441004504054544417
:100110004444444010444454284410540C042410D3
:10012000484060000000000040040A40180038F811
:1001300088289228223E00823C2020103000D6C61B
:100140006C74007C00104410183848787810383CE3
:10015000301040440410444478404478785C7C106B
:10016000046040444C447844783810444454102887
:100170002010147E141050FC503C04040000701831
:10018000FE50246854187E185430FC300082000061
:1001900000202C0064446C6C0000002044102004FB
:1001A0007C04442044040010204C0808107C444087
:1001B0004440404444104450404444444054480463
:1001C000104444542810401024040C54604048004B
:1001D0000000000048200A601854922888F8383E31
:1001E000222800440000004C2200545444443000B3
:1001F0003040441040440844442044083010105C0F
:100200001004104444444440404444104448404492
:10021000444440484444104428544410401040088A
:100220003C387820040000000000481E12500054A2
:1002300010C810041040102600380000004C700058
:10024000FC7C7C7C3000300038387C380838382022
:1002500038303010087C200010447838787C403CDE
:10026000443838447C4444384034443810381028EA
:1002700044107800000000100000000000000000A2
:1002800048000048004428482000100008240000CE
:10029000203C2000000000000000200000000000C2
:1002A000000000000000000000000000000000004E
:1002B000000000000000000000000000000000003E
:1002C000000000000000000000000000000000002E
:1002D00000043C04000000000000000000000000DA
:1002E000000000000004090D12161B1F23282C31EA
:1002F00035393E42464B4F53575B6064686C7074AF
:10030000787C8083878B8F9296999DA0A4A7ABAEB3
:10031000B1B4B7BABEC0C3C6C9CCCED1D3D6D8DB70
:10032000DDDFE1E3E5E7E9EBECEEF0F1F3F4F5F620
:10033000F7F8F9FAFBFCFDFDFEFEFEFFFFFFFF00F4
:1003400011241FBECFEFD4E0DEBFCDBF11E0A0E08F
:10035000B1E0E4EBFFE102C005900D92A433B107D8
:10036000D9F714E0A4E3B1E001C01D92A13CB107AC
:10037000E1F786D71DCE44CE02C08856914021E0D9
:1003800088369207D0F7843B910520F0845B90403B
:1003900041E001C040E08A35910530F024EB30E0C7
:1003A000B901681B790BCB018C519D4FFC018491E5
:1003B00090E0442319F0909581959F4F0895EF9216
:1003C000FF920F931F93CF93DF93EC011AE500E0A8
:1003D00010C0F12EF694EF2CE00E8E2D90E0CCDFC5
:1003E0008C179D072CF4F0941F0D0E2D0F5F01C08C
:1003F0001F2D112371F7802FDF91CF911F910F9146
:10040000FF90EF900895CF92DF92EF92FF920F93BB
:100410001F93CF93DF93442309F49DC0421708F440
:10042000242FFC01B5E0F695E795BA95E1F75E2F2C
:100430005F70FC01EF2FFF27E695FFE0FF2EFE2205
:10044000FC01EF2FFF27E295E695E7700E2F8F71E5
:10045000E52FF0E0EF0DF11DE00FF11D1E2F110F44
:10046000180F87E6189FD0011124AB2FBB27A69544
:10047000A695EA2E39E0039F302D11243F0D952FCC
:10048000990F950F390F3A0F389FD0011124AB2FD8
:10049000BB27A695A6955F2D550F550F5F0D500FE5
:1004A0005A0F589FC0011124892F99278695869548
:1004B000B02FBB0FBB0FBB0FB80F9AE1B99FE00184
:1004C00011246E010D2D253010F4DD2039F0902F10
:1004D000905DFB019193415011F433C0FB0166EF35
:1004E000069F602D11246B0F243010F4662321F039
:1004F000605D6193415029F196EF899F902D112401
:10050000950F233010F4992321F0905D9193415081
:10051000C1F086EFA89F802D1124830F223010F4A4
:10052000882321F0805D8193413059F0A6EFEA9E47
:10053000A02D1124A10F222311F4AA2311F0A05DF4
:10054000A193CF01DF91CF911F910F91FF90EF9079
:10055000DF90CF900895FB01F4CF1F93CF93DF93EB
:10056000EC0168818CE3689FB0011124882777FD36
:100570008095982F1981212F2F77620F711D811D72
:10058000911D20E737E140E050E073DC2A813B8198
:1005900040E050E0620F731F841F951F17FF07C0D4
:1005A00090958095709561957F4F8F4F9F4FDF910C
:1005B000CF911F91089521ED3CE040E050E059DCDF
:1005C00028EE33E040E050E0C8DCCA01B9010895EC
:1005D0001092900410928F041092820410928E0454
:1005E00010928D041092920410929104A3E8B4E04A
:1005F000EFE5F4E08AE001900D928150E1F781E0AF
:1006000080938004089593E2899FC0011124860F8E
:10061000911D8E509E4F08951F93FC01128116FF6D
:1006200011C081816081EFDFFC011F73810F911D7B
:1006300006C02081222311F0206820833196E8171C
:10064000F907B8F31F910895FC0101C01192E61754
:10065000F707E0F308950F931F93FC01062F128113
:1006600017FF0CC081816081CEDFFC011F73810FF9
:10067000911D01C00193E817F907E0F31F910F9155
:100680000895AF92BF92CF92DF92EF92FF920F93B5
:100690001F93DF93CF930F92CDB7DEB77C015B0141
:1006A000142FFC01C280C7FE22C081816081298392
:1006B000AADFBC014C2D4F736C01C40ED11C2981E3
:1006C000222321F0FC012193BF014150011141502F
:1006D000C501212F98DE5C01002319F0FC01019374
:1006E0005F01C70199DFC501B601AEDF02C0AA24D0
:1006F000BB24C5010F90CF91DF911F910F91FF9007
:10070000EF90DF90CF90BF90AF900895CF92DF929F
:10071000FF920F931F93DF93CF930F92CDB7DEB766
:100720006C018B01DC0112968C91129787FF51C0EE
:1007300011968C9111976C91498365DFFC01D8016A
:100740002C9111963C9111978FE7F82EF322129677
:100750006D917C911397331F3327331FCB01880F83
:10076000991F13E0660F771F1A95E1F7860F971F01
:1007700066E070E0A9DB8B014981442331F033232B
:1007800011F083E50AC08EE408C0243608F4119203
:10079000332311F087E501C085E48193822F90E037
:1007A000BF0143E022E02FDEBC0187E2FB01819321
:1007B000BF018F2D90E042E022E025DEBC018EE2F9
:1007C000DB018D93BD01C80144E024E01CDEC601BD
:1007D00023DF0F90CF91DF911F910F91FF90DF905A
:1007E000CF900895CF92DF92EF92FF920F931F93D5
:1007F000CF93DF93EC018C8187FF2FC08A819B818F
:10080000860F971F969587959B838A83837039F00F
:10081000813039F0823039F4F02E042F06C0F42EE6
:1008200004C0F22E02C0F02E022FC880D98010E042
:100830000CC080FF02C0E02E01C0EF2C812F8D0D77
:100840006C2DE1DEFC01E0821F5F812F90E0EC81E6
:10085000EF73F0E08E179F0764F3DF91CF911F9144
:100860000F91FF90EF90DF90CF9008956F927F925D
:100870008F929F92BF92CF92DF92EF92FF920F934F
:100880001F93CF93DF933A014901C82FD0E04AE587
:10089000E42EF12CE60EF71ECB018C549F4F6CDD3D
:1008A0009C012C9FC0012D9F900D3C9F900D112409
:1008B00000E011E0B8011CDB6B01C7015DDDFC014C
:1008C000EC9FC001ED9F900DFC9F900D1124B8018D
:1008D0000FDBF301C082F4016083669F802D112439
:1008E000CC9CB02C11248B0DDF91CF911F910F91D7
:1008F000FF90EF90DF90CF90BF909F908F907F9070
:100900006F9008952BE530E0AC01429FC001439FFA
:10091000900D529F900D1124835D974F892F992739
:1009200082958F70883008F080E00895CF92DF9232
:10093000EF92FF920F931F93CF93DF93EC01888187
:1009400090E0880F991FFC01E956FB4F208131810F
:1009500040E050E0855E9E4FFC016081718180E047
:1009600090E087DAEAE09695879577956795EA951E
:10097000D1F7EC80FD80970140E050E02617370763
:100980004807590718F42885398526C0CA80DB80B6
:10099000960140E050E00E811F8126173707480777
:1009A0005907C8F4621B730B840B950B2885398596
:1009B000201B310B40E050E05CDAEC18FD08970199
:1009C00040E050E0A8DAC801A0E0B0E0280F391FED
:1009D0004A1F5B1F03C0980140E050E089818823D3
:1009E000A1F08E819F81A0E0B0E0E884F98400E06E
:1009F00010E08E0D9F1DA01FB11F7C018D01E21A1A
:100A0000F30A040B150BA8019701C901DF91CF91DF
:100A10001F910F91FF90EF90DF90CF9008959C0170
:100A2000FB019383828364E670E04EDA60838CE995
:100A3000869F602D1124620F6183089580E1EFE6A7
:100A4000F4E0DF011D928A95E9F70895DC01EFE6F5
:100A5000F4E091918D91981731F484E0E437F80730
:100A6000C1F781E0089580E008951F93682F809179
:100A70006F048D3221F070E0AFE6B4E003C071E0A6
:100A8000A0E7B4E080E090E0FD0124E0AF37B207DA
:100A9000B1F01D91212F20532A3088F49C01220FA0
:100AA000331FAC0183E0440F551F8A95E1F7240FF3
:100AB000351F812F90E0C097820F931FE5CF6623EB
:100AC000C9F020812E3209F431969C01220F331F88
:100AD000A3E0880F991FAA95E1F7820F931F208149
:100AE000322F30533A3020F4C097820F911D319647
:100AF000615059F7772319F0909581959F4F1F9179
:100B000008950F931F93CF93DF93FC0180916F049F
:100B10008D3231F480917004A0E7B4E021E003C08D
:100B2000AFE6B4E020E08053ED012196880F182F46
:100B3000110F110F180F11968C91180F1053DE0121
:100B4000119613968C9113978E3249F4110F812FC1
:100B5000880F880F810F19811053180F1196ED011E
:100B600089918053880F982F990F990F980F11969C
:100B70003C913053390FDE01129604E080E090E0A2
:100B8000EC01CC0FDD1F43E0880F991F4A95E1F778
:100B9000C80FD91F4C91842F80538A3028F450E01D
:100BA00040535040119602C040E050E0CE01840F07
:100BB000951F015029F7680F791F87E26031780788
:100BC00018F0605177423F5F3C3310F03C531F5F99
:100BD000CB01880F991F860F971F880F991F1083CD
:100BE0006AE070E071D97383628327952227279585
:100BF0003F77322B3183DF91CF911F910F91089571
:100C000080915D048823C1F480E091E01FDF882398
:100C100031F081E080935D0410921A01089586E01E
:100C200091E014DF882309F4DAC082E080935D0448
:100C300084E680931A01089580915C04882309F466
:100C4000CEC080911A01883671F1893680F48730E0
:100C500009F450C0883020F4863009F0C0C041C08B
:100C6000893009F44CC0873609F0B9C015C08B36FD
:100C700009F45CC08C3630F4893601F18A3609F00B
:100C8000AEC024C08C3609F483C0883C09F0A7C0EC
:100C9000EFE6F4E080E095C060914201709143017D
:100CA00087E494E011C080916F04833509F097C008
:100CB00080914804806880934804089560914401BD
:100CC000709145018BE494E01CDF089580916F04DE
:100CD000873509F084C080914C04806880934C046F
:100CE000089580E0C2DE21E0009709F420E020931F
:100CF0005504089580E0B9DE80935404089580E09F
:100D0000B4DE9093500480934F0420913C01213035
:100D100009F065C09C01B901882777FD8095982F5F
:100D20004ADC7093500460934F04089582E09DDE86
:100D300030913C0120914A013130A1F4BC0180E0A6
:100D400090E0222329F02FE734E040E050E004C097
:100D50002DE632E040E050E08CD828EE33E040E071
:100D600050E00EC0222371F0BC0180E090E02FEC37
:100D700031E040E050E07DD82AEF30E040E050E044
:100D8000CAD8C90164E670E09FD8609353040895FF
:100D900080E06BDE90935204809351040895829515
:100DA000807F292F2154263010F4975309C0292F12
:100DB0002156263010F4975503C090539A3008F40A
:100DC000890F9191992321F034E0E038F30739F746
:100DD00091E020915E04821390E090935604089570
:100DE0002F923F924F925F926F927F928F929F923B
:100DF000AF92BF92CF92DF92EF92FF920F931F9329
:100E0000DF93CF93CDB7DEB72D970FB6F894DEBF43
:100E10000FBECDBF2C017D836C835A834983209103
:100E20005F04309160044091610450916204FC01C0
:100E300080819181A281B381281739074A075B0716
:100E4000F9F4209163043091640440916504509159
:100E5000660484819581A681B781281739074A07DE
:100E60005B0771F4DB011D921D921D921C9213977A
:100E7000E981FA81309709F472C1118210826FC141
:100E8000D2012C9130E080915F0490E040916004A9
:100E900011965C911197452747FF03C09095819566
:100EA0009F4F820F931F97FF03C0909581959F4F8F
:100EB00095958795865A9F4F5FDA1C018FE594E0E0
:100EC0004CDB5B016C01C20148DB3B014C0183E65A
:100ED00094E043DB7B018C01C20104963EDB9B0165
:100EE000AC012E193F09400B510B6A187B088C0886
:100EF0009D08B101882777FD8095982FBAD7E72EF6
:100F0000F82E092F112707FD1A9560E009C01595E5
:100F10000795F794E79495948794779467946F5F17
:100F2000A801970117FF07C022273327A9012E190F
:100F30003F09400B510B2F3FBFEF3B07B0E04B0782
:100F4000B0E05B0720F7D401C30197FE07C08827F4
:100F50009927DC0186199709A809B9098F3FEFEF96
:100F60009E07E0E0AE07E0E0BE0788F66B832E83C5
:100F70003F83488759878A879B87AC87BD87C8018D
:100F8000B701A801970175D71B012C01C401B3015A
:100F9000A40193016ED7E0E0570168010FC022E081
:100FA00056944794379427942A95D1F702E0969562
:100FB0008795779567950A95D1F7EF5FE92EFF241E
:100FC00000271127252D332744275527E20EF31E2E
:100FD000041F151FFFEFEF16F1040105110509F0BD
:100FE000F0F686017501260E371E481E591E60E177
:100FF00070E0A12CB12CC12CA0E4DA2E80E090E0AE
:10100000DC01A6019501282B392B4A2B5B2BB695C9
:10101000A79597958795221633064406550640F006
:10102000221A330A440A550A8A299B29AC29BD2968
:1010300022E0D694C794B794A7942A95D1F761502B
:101040007040F9F65C016D0104C0AA0CBB1CCC1CFD
:10105000DD1CEA95D2F729813A812115310509F481
:101060005DC0A114B104C104D10409F44DC06114E0
:1010700071048104910429F417FD49C08AE590E0C8
:1010800048C08E819F81A885B9852A853B854C857E
:101090005D8582179307A407B50760F0942F832F0F
:1010A000722F6627A601950136D7C90188D9282F46
:1010B00030E011C02E813F8148855985942F832FC0
:1010C000722F6627A601950126D7C90178D92AE58E
:1010D00030E0281B310916141704180419044CF4C5
:1010E00017FD03C08AE590E00CC0C901825F9E4FE6
:1010F00010C017FD04C0C901865A9F4F0AC08EE078
:1011000091E0821B930B05C080E090E002C08EE06E
:1011100091E0A981BA8111969C938E93C601B50185
:1011200029E732E040E050E0A4D6EBE096958795C1
:1011300077956795EA95D1F70B8004C0660F771F06
:10114000881F991F0A94D2F720913C01213009F49D
:1011500032DAEC81FD8160837183828393832D96E3
:101160000FB6F894DEBF0FBECDBFCF91DF911F91B8
:101170000F91FF90EF90DF90CF90BF90AF909F9036
:101180008F907F906F905F904F903F902F90089539
:101190000F931F93CF93DF930091960107FF1BC01E
:1011A00080919501609194012EDAEC010F73800F0C
:1011B000911D8C01E7EEF1E001C0899381918823B4
:1011C00019F0C017D107C8F384E991E025DACE0100
:1011D000B8013ADA02C0C0E0D0E0CE01DF91CF9191
:1011E0001F910F9108956F927F928F929F92AF926D
:1011F000CF92EF920F931F93DF93CF9300D0CDB791
:10120000DEB73C01162FFC01828087FE2BC0818156
:1012100060812A834983F7D9BC01882D8F734B01E4
:10122000880E911C2A814981EE2019F0FB01E19280
:10123000BF01812F90E0E7D8BC01AA2019F0FC0182
:10124000A192BF01802F90E042E022E0DCD88C0127
:10125000CC2019F0FC01C1928F01C301DDD9C80176
:10126000B401F2D90F900F90CF91DF911F910F91A0
:10127000EF90CF90AF909F908F907F906F90089558
:10128000DF93CF9300D000D000D0CDB7DEB7299840
:101290008CE084B980916F00816080936F008091B1
:1012A000810083608093810086E391E060E070E0DC
:1012B0004AEB50E06DD680913E018BB980913F01A1
:1012C0008AB983E08093690081E08DBB80E880BFAC
:1012D00010927B001EBC8DB58E7F8DBD84E58CBDCC
:1012E00080913C01813011F486E401C08DE6809349
:1012F00057048091D7019091D8019093590480931D
:10130000580490935B0480935A0442DF10927E004D
:1013100080917C00806480937C0080917A0086605C
:1013200080937A0010927B0080914101882319F00C
:101330008BE990E002C087E391E0292F33272093C7
:10134000C5008093C40086E08093C20080E1809352
:10135000C1007894A2E02A2E312C2C0E3D1E8091E3
:10136000C00087FFB8C01091C60090911A019F3F3E
:1013700021F4143209F0AFC010C0143271F01532EC
:1013800030F41A30A1F11D3009F092C030C01A3289
:10139000F1F01C3209F08CC015C010925C04109260
:1013A0005D0410925E0410921A01A7E4B4E0EFE528
:1013B000F4E080E101900D928150E1F71092560423
:1013C0003DDB89C080915E04812780935E0418DC38
:1013D00035DB10925C0480911A018F5F80931A01B3
:1013E0001A3209F078C088EC80931A0174C008DCC6
:1013F0008FEF80931A0180915604882309F46BC003
:1014000080917F048F5F80937F04843010F010926E
:101410007F04AFE5B4E0E7E4F4E080E101900D92F1
:101420008150E1F780918004882321F580916D043B
:101430008823E9F080914601813079F4809181041C
:1014400090914701891728F090916C048091480190
:101450000AC08F5F809381043EC08230E1F5909195
:101460006B04809149019817B0F1B2D834C0109242
:10147000810431C080916B0490918204981710F41C
:1014800080938204809167049091680420918B047A
:1014900030918C04821B930B20918D0430918E042B
:1014A00028173907C4F490938E0480938D0413C0D9
:1014B00080915C04E82FF0E0E159FB4F1083983CE9
:1014C00029F090915E04912790935E048F3018F478
:1014D0008F5F80935C0420913E0180913F0199B120
:1014E00092239217F1F091E09093450420914604E5
:1014F00090914001921708F59BB1982B9BB9809170
:1015000056048823D1F0809155048823B1F01092BD
:1015100046045ED81092930410929404109295049D
:101520000CC090914504992321F09BB180958923AB
:101530008BB910924504109246048091340188239F
:1015400009F40DCFE090340180914504882329F0FF
:10155000809146048F5F80934604809193048F5F4F
:10156000809393048E1538F0109293048091940424
:101570008F5F80939404809194048C3338F01092A0
:101580009404809195048F5F80939504D090930488
:101590009E2D969581E09D1508F080E0809396043D
:1015A0008D2D6E2D85D4992309F0A4C0E7E9F4E0D0
:1015B00020E080917C00807F80937C0080917C0083
:1015C000822B80937C0080917A00806A80937A00DD
:1015D00080917A00806480937A0080917A0084FF01
:1015E000FCCF80917A00806180937A0080917A00AC
:1015F0008F7580937A008091780090917900819323
:1016000091932F5F2430A9F68BE491E08FD96FE995
:1016100074E005DA85E591E089D963EA74E0FFD9E1
:1016200089E691E083D98C01BC0180E090E02AE05A
:1016300030E040E050E01DD4FAE0660F771F881FCD
:10164000991FFA95D1F720E13EE040E050E063D4E5
:101650008091A7049091A804A091A904B091AA0434
:10166000820F931FA41FB51F8093A7049093A80413
:10167000A093A904B093AA04C8016BEA74E0CFD97F
:101680008FE591E053D98093AF0480916D04882356
:1016900089F18091B004882361F4A1EBB4E0EFE517
:1016A000F4E08AE001900D928150E1F781E08093AF
:1016B000B00481EB94E0B10140E050E091DB8A811D
:1016C0009B81AC81BD810097A105B10599F0209166
:1016D0008F0430919004280F391F30939004209389
:1016E0008F04A1EBB4E0EFE5F4E08AE001900D9205
:1016F0008150E1F78E2D6AE0DBD3682F8D2DD8D392
:10170000992309F0E3C2D090960480913F01909113
:101710006D04992371F090918004992311F4DD20D8
:1017200019F09BB1982B07C09BB1809589238BB989
:1017300003C09BB198279BB980918004882309F14D
:1017400083E894E0B1014BEB54E04ADB8A819B8152
:10175000AC81BD81209191043091920440E050E031
:10176000281739074A075B0720F490939204809367
:1017700091048093BD049093BE04A093BF04B093E2
:10178000C004809067049090680480918B049091CD
:101790008C04881A990A50906B0470916D048091A2
:1017A0007301882309F468C0BB24B3948091790144
:1017B000851508F0BB2480917C0190917D018815EE
:1017C000990560F081E090E020917A0130917B01F1
:1017D0008216930628F080E090E002C081E090E05D
:1017E000482E11E02091BD043091BE044091BF0409
:1017F0005091C00480917E0190917F01A091800161
:10180000B091810182179307A407B50708F010E093
:101810002091A1043091A2042115310549F081E005
:1018200090E040917401509175012417350710F034
:1018300080E090E0F82E2091A5043091A6042115B7
:10184000310549F081E090E04091760150917701B7
:101850002417350710F080E090E0782E2091AF0437
:10186000222331F081E090E030917801231710F0CD
:1018700080E090E0682E06C066247724FF2410E004
:101880004424BB248DE991E06091950443E022E07B
:1018900000919404EE24CC24EAE3AE2E7E83A3DCF4
:1018A0007E81772369F089EA91E063E674E040E0A5
:1018B0002DD786EA91E06FE574E041E027D70AC0B2
:1018C00089EA91E06DE2C7D686EA91E06DE2C3D67F
:1018D000DD2079F060916C0470E0E0917F04F0E02D
:1018E000E45FFE4F8CEA91E042E026E20081C9D637
:1018F00004C08CEA91E060E2AED6FF2011F0DD205A
:1019000081F087E991E060919F0442E021E000913D
:10191000A0045AE2E52E36E5C32EBEE2AB2E63DC10
:1019200004C087E991E060E296D6772011F0DD20CF
:1019300081F08AE991E06091A30442E021E0009106
:10194000A404AAE2EA2EF6E5CF2EEEE2AE2E4BDCA0
:1019500004C08AE991E060E27ED6662011F0DD20C5
:1019600051F06091AF0470E088EB91E042E020E438
:1019700005E287D604C088EB91E060E26CD687EC84
:1019800091E06091AB0442E021E00091AC047DE382
:10199000E72E51E4C52E3EE2A32E25DC2091A704BC
:1019A0003091A8044091A9045091AA040AE05695E8
:1019B0004795379527950A95D1F78AEC91E0B901BB
:1019C00044E02DE30DE65DD6FC01009761F08091C7
:1019D000CC0186FF02C080E801C080E0982F9164AE
:1019E0009083886681836091820470E08BEB91E044
:1019F00043E020E000E045D660918D0470918E04B4
:101A000084EC91E044E020E03CD6F09057046091F3
:101A10008F047091900481EC91E044E029E60F2D51
:101A200030D660919104709192048EEB91E044E085
:101A30002AE627D6112311F0DD2059F06091BD046C
:101A40007091BE0482EB91E044E020E00F2D19D6A6
:101A500004C082EB91E060E2FED5740197FE02C003
:101A6000EE24FF24442011F0DD2041F080EA91E0D3
:101A7000B70145E02CE300E004D604C080EA91E021
:101A800060E2E9D5BB2011F0DD2049F0652D70E062
:101A900083EA91E044E020E00EE3F3D504C083EA5A
:101AA00091E060E2D8D582ED91E0B70142E223E215
:101AB00004E298D6652D70E08DEC91E043E624E6D3
:101AC00005E690D68090BB049090BC04A090690479
:101AD000B0906A047401EA18FB08F7FE04C088E6B7
:101AE00091E0E80EF91E8091BD049091BE04209112
:101AF000E30127FF70C0E9EDF1E040E02191319171
:101B00008217930718F04F5F4530C1F7842F90E09C
:101B1000880F991F0196889F9001899F300D989F8B
:101B2000300D11243595279535952795C22E00E067
:101B300010E0742E7394B801680D791D872DAE01E5
:101B40004F5F5F4F910192D6C81680F4B401601BBD
:101B5000710B872DAE014F5F5F4F910187D6C8167D
:101B600028F40F5F1F4F0830110529F78091E3011A
:101B700086FF03C0F0E8CF2E01C0CC248090D701AF
:101B80007090D8010981080D09831A81170D1A83F5
:101B9000952D923028F0C501B5D6282F225901C0C5
:101BA0002CE680915904609158042E832CD5FC01B9
:101BB0001082872D682D27D53C2D3162FC013083A2
:101BC000812F602F20D52E81C22AFC01C082009374
:101BD0005804109359048091B10187FF18C0C701C0
:101BE00091D6082F055AF4EBEF16F10434F48FEA7E
:101BF00091E0B70143E020E209C068E671E06E19A8
:101C00007F098FEA91E043E0202F00E23AD5B090BF
:101C10008004C090B701C7FE22C08091B6016091D8
:101C2000B501F1D48C01C6FE02C020E801C020E05D
:101C3000BB2069F0822F8962F8018083C7012E835F
:101C400061D6855A2E81822BF801818308C0DD2060
:101C500011F088E201C080E2282BF8012083109166
:101C6000E60117FF33C0C7014DD616FF03C0E0E8F9
:101C7000EE2E01C0EE24C090E401B090E501082FE3
:101C800010E0F801EE0FFF1FED5DFE4FF080FC0C41
:101C9000D180DB0C80915B0460915A04B4D4FC01C8
:101CA00010828B2D6C2DAFD42E2D2162FC01208350
:101CB0008D2D6F2DA8D4FC01D801AF5EBE4F8C9145
:101CC0008E298083F0925A04D0925B0410923401E2
:101CD00046CB1F920F920FB60F9211242F933F9372
:101CE0004F935F936F937F938F939F93AF93BF9324
:101CF000EF93FF9384E28A95F1F74A9988C0809127
:101D000035018F5F90919301981718F080933501FA
:101D100084C02091F001213108F07FC03091F101A1
:101D2000E22FF0E0EE57FE4F8081682F685F381792
:101D300008F45AC0361708F057C0932F981B8091AB
:101D40003B01882321F48AE08A95F1F703C08DE0F6
:101D50008A95F1F700C0A3E22A9FD0011124AE506A
:101D6000BE4F86E5989FC00111248C5C9F4F43E2D3
:101D70005D91552351F0752F7F777052FC01E70F6D
:101D8000F11DE49157FD0CC00DC0000000000000E3
:101D9000000000000000000000000000E0E002C0C1
:101DA000219A02C021980000EEBD00000000000052
:101DB000000000000000000000000000415009F099
:101DC000D7CF00000000000000000000000000006D
:101DD0000000000000000000000000000000000003
:101DE000000000001EBC2198832F8F5F8F3F09F4F5
:101DF000832F861709F42F5F2093F0018093F10160
:101E0000883C59F4809140018093340106C01092BF
:101E1000F101109235011092F0011092850010929C
:101E20008400FF91EF91BF91AF919F918F917F912E
:101E30006F915F914F913F912F910F900FBE0F9037
:101E40001F9018951F920F920FB60F9211248F9327
:101E50009F938AE08093340183E89DE69093850008
:101E6000809384009F918F910F900FBE0F901F90D1
:101E70001895629FD001739FF001829FE00DF11DC4
:101E8000649FE00DF11D929FF00D839FF00D749FF4
:101E9000F00D659FF00D9927729FB00DE11DF91FA0
:101EA000639FB00DE11DF91FBD01CF0111240895FD
:101EB000991B79E004C0991F961708F0961B881F9C
:101EC0007A95C9F780950895AA1BBB1B51E107C0FD
:101ED000AA1FBB1FA617B70710F0A61BB70B881FBA
:101EE000991F5A95A9F780959095BC01CD01089549
:101EF00097FB092E07260AD077FD04D0E5DF06D030
:101F000000201AF4709561957F4F0895F6F790952B
:101F100081959F4F0895A1E21A2EAA1BBB1BFD01BC
:101F20000DC0AA1FBB1FEE1FFF1FA217B307E407B8
:101F3000F50720F0A21BB30BE40BF50B661F771F10
:101F4000881F991F1A9469F76095709580959095F0
:101F50009B01AC01BD01CF01089597FB092E052619
:101F60000ED057FD04D0D7DF0AD0001C38F45095AE
:101F70004095309521953F4F4F4F5F4F0895F6F7AD
:101F800090958095709561957F4F8F4F9F4F0895E5
:101F9000DC01CB01FC01F999FECF06C0F2BDE1BD29
:101FA000F89A319600B40D9241505040B8F7089518
:041FB000F894FFCFD3
:101FB4004750474741004750524D43002D3F3B2F68
:101FC400003B2F2D3F3B2F2D3F00FF1C0C1C0CF41E
:101FD40001F40100FF01FF010001010001FF01FF05
:041FE40000FFFF00FB
:00000001FF
