:10000000B7C184CED0C1CFC1CEC1CDC1CCC1CBC1CF
:10001000CAC1C9C1C8C1C7C1C6C1C5C1C4C1C3C1A4
:10002000C2C1C1C1C0C1BFC1BEC1BDC1BCC1BBC1D4
:10003000BAC1B9C100000000006440301210383865
:100040000000000038103838087C187C3838001060
:10005000083820007C387838787C7C384438044470
:1000600040444438783878387C44444444447810D8
:100070000000000000000000000000000000000080
:100080000000100020482824080000380000006408
:1000900044483C386C6C0000000444304444184030
:1000A000200444440010107C1040824444444440E6
:1000B000404444100448406C644444444444104464
:1000C0004444444408383C084010042078000000B0
:1000D0000000407812000000100410C810261040E4
:1000E00000440000000828307C7C4C5400000008CC
:1000F00044100404284040084444301020440820A0
:100100003844444044404040441004504054544417
:100110004444444010444454284410540C042410D3
:10012000484060000000000040040A40180038F811
:1001300088289228223E00823C2020103000D6C61B
:100140006C74007C00104410183848787810383CE3
:10015000301040440410444478404478785C7C106B
:10016000046040444C447844783810444454102887
:100170002010147E141050FC503C04040000701831
:10018000FE50246854187E185430FC300082000061
:1001900000202C0064446C6C0000002044102004FB
:1001A0007C04442044040010204C0808107C444087
:1001B0004440404444104450404444444054480463
:1001C000104444542810401024040C54604048004B
:1001D0000000000048200A601854922888F8383E31
:1001E000222800440000004C2200545444443000B3
:1001F0003040441040440844442044083010105C0F
:100200001004104444444440404444104448404492
:10021000444440484444104428544410401040088A
:100220003C387820040000000000481E12500054A2
:1002300010C810041040102600380000004C700058
:10024000FC7C7C7C3000300038387C380838382022
:1002500038303010087C200010447838787C403CDE
:10026000443838447C4444384034443810381028EA
:1002700044107800000000100000000000000000A2
:1002800048000048004428482000100008240000CE
:10029000203C2000000000000000200000000000C2
:1002A000000000000000000000000000000000004E
:1002B000000000000000000000000000000000003E
:1002C000000000000000000000000000000000002E
:1002D00000043C04000000000000000000000000DA
:1002E0000000000030006000C000800140021C0CD3
:1002F0001C0CF401F4010004090D12161B1F232825
:100300002C3135393E42464B4F53575B6064686C25
:100310007074787C8083878B8F9296999DA0A4A718
:10032000ABAEB1B4B7BABEC0C3C6C9CCCED1D3D6BA
:10033000D8DBDDDFE1E3E5E7E9EBECEEF0F1F3F448
:10034000F5F6F7F8F9FAFBFCFDFDFEFEFEFFFFFFF8
:10035000FF2D3F3B2F0000FF01FF010001010001C5
:10036000FF01FF00FFFF3B2F2D3F3B2F2D3F0000E4
:1003700011241FBECFEFD4E0DEBFCDBF11E0A0E05F
:10038000B1E0E0EEFFE102C005900D92AE30B107A2
:10039000D9F714E0AEE0B1E001C01D92A03BB10777
:1003A000E1F7A4D71BCE2CCE02C08856914021E0A5
:1003B00088369207D0F7843B910520F0845B90400B
:1003C00041E001C040E08A35910530F024EB30E097
:1003D000B901681B790BCB018A509D4FFC018491B8
:1003E00090E0442319F0909581959F4F0895EF92E6
:1003F000FF920F931F93CF93DF93EC011AE500E078
:1004000010C0F12EF694EF2CE00E8E2D90E0CCDF94
:100410008C179D072CF4F0941F0D0E2D0F5F01C05B
:100420001F2D112371F7802FDF91CF911F910F9115
:10043000FF90EF900895CF92DF92EF92FF920F938B
:100440001F93CF93DF93442309F49DC0421708F410
:10045000242FFC01B5E0F695E795BA95E1F75E2FFC
:100460005F70FC01EF2FFF27E695FFE0FF2EFE22D5
:10047000FC01EF2FFF27E295E695E7700E2F8F71B5
:10048000E52FF0E0EF0DF11DE00FF11D1E2F110F14
:10049000180F87E6189FD0011124AB2FBB27A69514
:1004A000A695EA2E39E0039F302D11243F0D952F9C
:1004B000990F950F390F3A0F389FD0011124AB2FA8
:1004C000BB27A695A6955F2D550F550F5F0D500FB5
:1004D0005A0F589FC0011124892F99278695869518
:1004E000B02FBB0FBB0FBB0FB80F9AE1B99FE00154
:1004F00011246E010D2D253010F4DD2039F0902FE0
:10050000905DFB019193415011F433C0FB0166EF04
:10051000069F602D11246B0F243010F4662321F008
:10052000605D6193415029F196EF899F902D1124D0
:10053000950F233010F4992321F0905D9193415051
:10054000C1F086EFA89F802D1124830F223010F474
:10055000882321F0805D8193413059F0A6EFEA9E17
:10056000A02D1124A10F222311F4AA2311F0A05DC4
:10057000A193CF01DF91CF911F910F91FF90EF9049
:10058000DF90CF900895FB01F4CFFF920F931F935C
:10059000CF93DF93EC0168818CE3689FB001112455
:1005A000882777FD8095982FF9802F2D2F77620F60
:1005B000711D811D911D20E737E140E050E06FDCA7
:1005C0008B019C014A815B81CA01880F991F840FAE
:1005D000951F65E070E08EDC80E090E0060F171F4D
:1005E000281F391FF7FE07C03095209510950195FB
:1005F0001F4F2F4F3F4FC901B801DF91CF911F917E
:100600000F91FF90089521ED3CE040E050E047DC81
:1006100028EE33E040E050E0B6DCCA01B9010895AD
:10062000109288041092870410927A041092860423
:100630001092850410928A0410928904ABE7B4E00A
:10064000EEE3F4E08AE001900D928150E1F7ABE82F
:10065000B4E0EEE3F4E08AE001900D928150E1F71E
:1006600081E080937804089593E2899FC00111246A
:10067000860F911D84539E4F08951F93FC01128194
:1006800016FF11C081816081EFDFFC011F73810FB4
:10069000911D06C02081222311F02068208331960D
:1006A000E817F907B8F31F910895FC0101C01192F2
:1006B000E617F707E0F308950F931F93FC01062F49
:1006C000128117FF0CC081816081CEDFFC011F7396
:1006D000810F911D01C00193E817F907E0F31F9105
:1006E0000F910895AF92BF92CF92DF92EF92FF9257
:1006F0000F931F93DF93CF930F92CDB7DEB77C019B
:100700005B01142FFC01C280C7FE22C08181608181
:100710002983AADFBC014C2D4F736C01C40ED11C80
:100720002981222321F0FC012193BF0141500111B5
:100730004150C501212F7FDE5C01002319F0FC012F
:1007400001935F01C70199DFC501B601AEDF02C0A9
:10075000AA24BB24C5010F90CF91DF911F910F9167
:10076000FF90EF90DF90CF90BF90AF900895CF9221
:10077000DF92FF920F931F93DF93CF930F92CDB72A
:10078000DEB76C018B01DC0112968C91129787FF0A
:1007900042C011968C9111976C91498365DFFC01E1
:1007A000D8018C9111969C9111977FE7F72EF92231
:1007B00012960D911C911397991F9927991F4981A2
:1007C000442331F0992311F093E50AC09EE408C058
:1007D000843608F41192992311F097E501C095E44D
:1007E000919390E0BF0143E022E025DEBC0187E267
:1007F000FB018193BF018F2D90E042E022E01BDEE0
:10080000BC018EE2DB018D93BD01C80144E024E010
:1008100012DEC60132DF0F90CF91DF911F910F9151
:10082000FF90DF90CF900895CF92DF92EF92FF92EA
:100830000F931F93CF93DF93EC018C8187FF2FC021
:100840008A819B81860F971F969587959B838A83C4
:10085000837039F0813039F0823039F4F02E042F72
:1008600006C0F42E04C0F22E02C0F02E022FC88063
:10087000D98010E00CC080FF02C0E02E01C0EF2C38
:10088000812F8D0D6C2DF0DEFC01E0821F5F812F2A
:1008900090E0EC81EF73F0E08E179F0764F3DF9137
:1008A000CF911F910F91FF90EF90DF90CF9008951F
:1008B0006F927F928F929F92BF92CF92DF92EF9230
:1008C000FF920F931F93CF93DF933A014901C82FF3
:1008D000D0E0FAE5EF2EF12CE60EF71ECB018C549A
:1008E0009F4F62DD9C012C9FC0012D9F900D3C9F6E
:1008F000900D112400E011E0B80110DB6B01C7017D
:1009000053DDFC01EC9FC001ED9F900DFC9F900D0D
:100910001124B80103DBF301C082F4016083669FF8
:10092000802D1124CC9CB02C11248B0DDF91CF9104
:100930001F910F91FF90EF90DF90CF90BF909F900D
:100940008F907F906F90089547966DE270E0D2DAB5
:10095000862F683008F080E0089594E6899FC001F2
:100960001124860F911D009751F050E021E030E0F6
:100970008417950710F020E030E0C901089580E069
:1009800090E00895CF92DF92EF92FF920F931F9322
:10099000CF93DF93EC01E881F0E0EE0FFF1FDF0162
:1009A000A756BB4F2D913C91119740E050E0E2518A
:1009B000FD4F6591749180E090E071DAAAE0969520
:1009C000879577956795AA95D1F7EC80FD8097017B
:1009D00040E050E0261737074807590718F42885E4
:1009E000398526C0CA80DB80960140E050E00E8148
:1009F0001F812617370748075907C8F4621B730B76
:100A0000840B950B28853985201B310B40E050E085
:100A100046DAEC18FD08970140E050E092DAC80190
:100A2000A0E0B0E0280F391F4A1F5B1F03C09801E8
:100A300040E050E089818823A1F08E819F81A0E071
:100A4000B0E0E884F98400E010E08E0D9F1DA01F47
:100A5000B11F7C018D01E21AF30A040B150BA801EA
:100A60009701C901DF91CF911F910F91FF90EF90F6
:100A7000DF90CF9008959C01FB0164E670E03ADAC4
:100A800060838CE9869F602D1124620F6183089535
:100A900080E1E7E6F4E0DF011D928A95E9F7089529
:100AA000DC01E7E6F4E091918D91981731F484E050
:100AB000EC36F807C1F781E0089580E008951F93B0
:100AC000682F809167048D3221F070E0A7E6B4E0D2
:100AD00003C071E0A8E6B4E080E090E0FD0124E00E
:100AE000A737B207B1F01D91212F20532A3088F487
:100AF0009C01220F331FAC01E3E0440F551FEA9520
:100B0000E1F7240F351F812F90E0C097820F931FCC
:100B1000E5CF6623C9F020812E3209F431969C017D
:100B2000220F331F13E0880F991F1A95E1F7820FE8
:100B3000931F2081322F30533A3020F4C097820F18
:100B4000911D3196615059F7772319F09095819551
:100B50009F4F1F910895EF92FF920F931F93CF9392
:100B6000DF93FC01809167048D3239F48091680431
:100B7000A8E6B4E0FF24F39403C0A7E6B4E0FF24A2
:100B80008053ED012196880F182F110F110F180FA8
:100B900011968C91180F1053DE01119613968C91BB
:100BA00013978E3249F4110F812F880F880F810F10
:100BB00019811053180F119611960C91119700532B
:100BC0008C918053880F982F990F990F980F090FC8
:100BD000139644E0E42E80E090E0AC01440F551FF2
:100BE00023E0880F991F2A95E1F7480F591F2C9190
:100BF000822F80538A3028F430E020533040119601
:100C000002C020E030E0CA01820F931FEA9429F766
:100C1000680F791F87E26031780724F060517742CE
:100C20000F5F05C077FF03C0605F784D01500C3344
:100C30002CF00C531B3348F41F5F09C007FF07C09B
:100C4000045C112311F0115002C081E0F8261083DA
:100C500073836283F794FF24F7940F770F2901833E
:100C6000DF91CF911F910F91FF90EF9008958091A8
:100C700055048823C1F480E091E012DF882331F02D
:100C800081E08093550410920C01089586E091E074
:100C900007DF882309F4D9C082E08093550484E6F5
:100CA00080930C01089580915404882309F4CDC0E9
:100CB00080910C01883671F1893680F4873009F40F
:100CC0004FC0883020F4863009F0BFC040C0893062
:100CD00009F44BC0873609F0B8C015C08B3609F44B
:100CE0005BC08C3630F4893601F18A3609F0ADC02C
:100CF00023C08C3609F482C0883C09F0A6C0E7E620
:100D0000F4E080E094C060911B0170911C0187E5C4
:100D100094E011C080916704833509F096C08091FA
:100D20005804806880935804089560911D01709163
:100D30001E018BE594E00FCF80916704873509F0A1
:100D400084C080915C04806880935C04089580E096
:100D5000B6DE21E0009709F420E0209365040895B1
:100D600080E0ADDE80936404089580E0A8DE909377
:100D7000600480935F0420911501213009F065C063
:100D80009C01B901882777FD8095982F3CDC7093F2
:100D9000600460935F04089582E091DE3091150154
:100DA000209123013130A1F4BC0180E090E02223A6
:100DB00029F02FE734E040E050E004C02DE632E0B7
:100DC00040E050E06CD828EE33E040E050E00EC048
:100DD000222371F0BC0180E090E02FEC31E040E094
:100DE00050E05DD82AEF30E040E050E0AAD8C901D9
:100DF00064E670E07FD860936304089580E05FDE6E
:100E0000909362048093610408958295807F292FD6
:100E10002154263010F4975309C0292F215626302B
:100E200010F4975503C090539A3008F4890F9191AC
:100E3000992321F034E0E837F30739F791E0209166
:100E40005604821390E09093660408952F923F9287
:100E50004F925F926F927F928F929F92AF92BF92CA
:100E6000CF92DF92EF92FF920F931F93DF93CF9376
:100E7000CDB7DEB72D970FB6F894DEBF0FBECDBF4E
:100E80002C017D836C835A83498320913E043091E9
:100E90003F044091400450914104FC0180819181C4
:100EA000A281B381281739074A075B07F9F420911B
:100EB000420430914304409144045091450484819C
:100EC0009581A681B781281739074A075B0771F416
:100ED000DB011D921D921D921C921397E981FA81EC
:100EE000309709F472C1118210826FC1D2012C9126
:100EF00030E080913E0490E040913F0411965C9177
:100F00001197452747FF03C0909581959F4F820F0A
:100F1000931F97FF03C0909581959F4F9595879557
:100F2000865A9F4F41DA1C018EE394E02EDB5B0171
:100F30006C01C2012ADB3B014C0182E494E025DB19
:100F40007B018C01C201049620DB9B01AC012E19B0
:100F50003F09400B510B6A187B088C089D08B101B2
:100F6000882777FD8095982F9AD7E72EF82E092F9E
:100F7000112707FD1A9560E009C015950795F794AC
:100F8000E79495948794779467946F5FA80197018D
:100F900017FF07C022273327A9012E193F09400B4D
:100FA000510B2F3FBFEF3B07B0E04B07B0E05B07B3
:100FB00020F7D401C30197FE07C088279927DC01D9
:100FC00086199709A809B9098F3FEFEF9E07E0E05E
:100FD000AE07E0E0BE0788F66B832E833F83488729
:100FE00059878A879B87AC87BD87C801B701A8014D
:100FF000970155D71B012C01C401B301A401930132
:101000004ED7E0E0570168010FC022E056944794A4
:10101000379427942A95D1F702E09695879577958E
:1010200067950A95D1F7EF5FE92EFF240027112776
:10103000252D332744275527E20EF31E041F151FC5
:10104000FFEFEF16F1040105110509F0F0F6860136
:101050007501260E371E481E591E60E170E0A12C56
:10106000B12CC12CA0E4DA2E80E090E0DC01A601D6
:101070009501282B392B4A2B5B2BB695A795979575
:101080008795221633064406550640F0221A330A85
:10109000440A550A8A299B29AC29BD29F2E0D69435
:1010A000C794B794A794FA95D1F761507040F9F6B8
:1010B0005C016D0104C0AA0CBB1CCC1CDD1CEA95B4
:1010C000D2F729813A812115310509F45DC0A114B7
:1010D000B104C104D10409F44DC061147104810448
:1010E000910429F417FD49C08AE590E048C08E813B
:1010F0009F81A885B9852A853B854C855D858217AA
:101100009307A407B50760F0942F832F722F6627EB
:10111000A601950116D7C9016AD9282F30E011C060
:101120002E813F8148855985942F832F722F662702
:10113000A601950106D7C9015AD92AE530E0281B36
:10114000310916141704180419044CF417FD03C0D0
:101150008AE590E00CC0C901825F9E4F10C017FD68
:1011600004C0C901865A9F4F0AC08EE091E0821BDD
:10117000930B05C080E090E002C08EE091E0A98171
:10118000BA8111969C938E93C601B50129E732E08E
:1011900040E050E084D65BE096958795779567951B
:1011A0005A95D1F70B8004C0660F771F881F991FCF
:1011B0000A94D2F720911501213009F424DAEC8148
:1011C000FD8160837183828393832D960FB6F8949B
:1011D000DEBF0FBECDBFCF91DF911F910F91FF906A
:1011E000EF90DF90CF90BF90AF909F908F907F90C7
:1011F0006F905F904F903F902F9008950F931F93A3
:10120000CF93DF9300916F0107FF1BC080916E01A8
:1012100060916D0129DAEC010F73800F911D8C0133
:10122000E0ECF1E001C089938191882319F0C017A7
:10123000D107C8F38DE691E020DACE01B80135DAA6
:1012400002C0C0E0D0E0CE01DF91CF911F910F919D
:1012500008956F927F928F929F92AF92CF92EF926A
:101260000F931F93DF93CF9300D0CDB7DEB73C0130
:10127000162FFC01828087FE2BC0818160812A832A
:101280004983F2D9BC01882D8F734B01880E911CC4
:101290002A814981EE2019F0FB01E192BF01812FE3
:1012A00090E0C9D8BC01AA2019F0FC01A192BF01AD
:1012B000802F90E042E022E0BED88C01CC2019F0D3
:1012C000FC01C1928F01C301D8D9C801B401EDD985
:1012D0000F900F90CF91DF911F910F91EF90CF90D2
:1012E000AF909F908F907F906F900895DF93CF93F2
:1012F00000D000D000D0CDB7DEB78FE091E060E045
:1013000070E04AEB50E05AD6809117018BB980917A
:1013100018018AB921988CE084B983E08093690030
:1013200081E08DBB1EBC84E58CBD809115018130B0
:1013300011F486E401C08DE680934E04909114016F
:1013400080916C01992311F48E5E01C08A5E8093B6
:101350006C0110924F04109250041092510410929C
:10136000520480917C00806480937C0080917A009C
:10137000876080937A00E0911A01F0E0EE0FFF1F82
:10138000EC51FD4F6591749188E99AE3B3D56150B2
:101390007040872F99278093C5006093C40086E032
:1013A0008093C20080E18093C1007894C4C0909182
:1013B0000C019F3F21F4143209F0AFC010C0143269
:1013C00071F0153230F41A30A1F11D3009F092C0DD
:1013D00030C01A32F1F01C3209F08CC015C01092E6
:1013E0005404109255041092560410920C01A7E573
:1013F000B4E0EEE3F4E080E101900D928150E1F77A
:101400001092660445DB89C0809156048127809341
:1014100056042DDC3DDB1092540480910C018F5F4B
:1014200080930C011A3209F078C088EC80930C018B
:1014300074C01DDC8FEF80930C01809166048823BB
:1014400009F46BC0809177048F5F809377048430B8
:1014500010F010927704AEE3B4E0E7E5F4E080E149
:1014600001900D928150E1F780917804882321F555
:1014700080914C048823E9F080911F01813079F438
:101480008091790490912001891728F090914B0464
:10149000809121010AC08F5F809379043EC0823021
:1014A000E1F590914A04809122019817B0F1B8D8E3
:1014B00034C01092790431C080914A0490917A042A
:1014C000981710F480937A04809146049091470411
:1014D0002091830430918404821B930B2091850416
:1014E0003091860428173907C4F4909386048093BA
:1014F000850413C080915404E82FF0E0E959FB4FB4
:101500001083983C29F090915604912790935604AB
:101510008F3018F48F5F8093540480915304E82F28
:10152000F0E0E05EFB4F10828F5F809353048C31BC
:1015300010F010925304E0915304F0E0E05EFB4F92
:101540001081112309F033CF2091170180911801E8
:1015500099B192239217F1F091E090933C0420917D
:101560003D0490911901921708F59BB1982B9BB9F6
:1015700080914D048823D1F080914C048823B1F0F0
:1015800010923D044DD8109295041092960410923A
:1015900097040CC090913C04992321F09BB1809555
:1015A00089238BB910923C0410923D048091CB01A9
:1015B000882309F26091CB0180913C04882329F0B3
:1015C00080913D048F5F80933D04809195048F5FEF
:1015D00080939504861738F01092950480919604B4
:1015E0008F5F80939604809196048C3338F010922C
:1015F0009604809197048F5F80939704F0909504F0
:10160000669581E06F1508F080E0809398048F2D37
:1016100065D4992309F06FC0E9E9F4E020E08091F6
:101620007C00807F80937C0080917C00822B809363
:101630007C0080917A00806880937A0080917A00A3
:10164000806480937A0080917A0084FFFCCF80913F
:101650007A00806180937A0080917A008F778093FE
:101660007A008091780090917900819391932F5F17
:101670002430A9F684E291E085D961EA74E0FBD9CF
:101680008EE291E07FD963EA74E0F5D982E491E0DB
:1016900079D98C01BC0180E090E02AE030E040E0A4
:1016A00050E0FDD3EAE0660F771F881F991FEA9587
:1016B000D1F720E23CE140E050E043D48091A50422
:1016C0009091A604A091A704B091A804820F931F43
:1016D000A41FB51F8093A5049093A604A093A7040C
:1016E000B093A804C80169EA74E0C5D988E391E021
:1016F00049D98093AB048091960480FD2DC0FF20D2
:1017000059F580914C04882339F18091780488231D
:1017100019F18BE894E0BE016E5F7F4F40E050E02E
:1017200095DB8A819B81AC81BD810097A105B105C4
:1017300099F02091870430918804280F391F309345
:10174000880420938704ABE8B4E0EEE3F4E08AE099
:1017500001900D928150E1F7F0FCD5C2D090980431
:101760008091180190914C04992371F09091780424
:10177000992311F4DD2019F09BB1982B07C09BB180
:10178000809589238BB903C09BB198279BB9809121
:1017900078048823F9F08BE794E0BE016E5F7F4FF9
:1017A0004CEA54E053DB8A819B81AC81BD8120915E
:1017B000890430918A0440E050E0281739074A072D
:1017C0005B0720F490938A04809389049093AF047C
:1017D0008093AE04809046049090470480918304E7
:1017E00090918404881A990A50904A0430904C04CD
:1017F00080914C01882309F450C0BB24B39480919C
:101800005201851508F0BB24809155019091560135
:101810008815990560F081E090E0209153013091A6
:1018200054018216930628F080E090E002C081E027
:1018300090E0482E2091AE043091AF0440E050E09B
:1018400011E08091570190915801A0915901B091F8
:101850005A0182179307A407B50708F010E080919A
:10186000A1046091A20440914D0177D8F82E809197
:10187000A3046091A40440914F016FD8782E209169
:10188000AB04222331F081E090E030915101231725
:1018900010F080E090E0682E06C066247724FF24D4
:1018A00010E04424BB24AADC86E791E06091970411
:1018B00043E022E000919604EE24CC247AE3A72EA4
:1018C000C8DC332069F082E891E062E474E040E033
:1018D0004ED78FE791E06EE374E041E048D70AC04D
:1018E00082E891E06DE2E8D68FE791E06DE2E4D620
:1018F000DD2079F0E0917704F0E0EF5AFC4F04919D
:1019000060914B0470E085E891E042E026E2EAD67F
:1019100004C085E891E060E2CFD6FF2011F0DD2021
:1019200081F080E791E06091A10442E021E0009124
:10193000A2045AE2E52E36E5C32EBEE2AB2E89DCC8
:1019400004C080E791E060E2B7D6772011F0DD2097
:1019500081F083E791E06091A30442E021E00091EF
:10196000A404ABE2EA2EF6E5CF2EEEE2AE2E71DC59
:1019700004C083E791E060E29FD6662011F0DD208D
:1019800051F06091AB0470E081E991E042E020E425
:1019900005E2A8D604C081E991E060E28DD680EA34
:1019A00091E06091A90443E021E00091AA047DE365
:1019B000E72E51E4C52E3EE2A32E4BDC2091A50478
:1019C0003091A6044091A7045091A8040AE05695CE
:1019D0004795379527950A95D1F783EA91E0B901A4
:1019E00044E02DE30DE67ED6FC01009761F0809186
:1019F000A50186FF02C080E801C080E0982F9164B5
:101A000090838866818360917A0470E084E991E034
:101A100043E020E000E066D6609185047091860482
:101A20008DE991E044E020E05DD6F0904E046091B5
:101A30008704709188048AE991E044E029E60F2D3B
:101A400051D66091890470918A0487E991E044E05D
:101A50002AE648D6112311F0DD2059F06091AE043A
:101A60007091AF048BE891E044E020E00F2D3AD66E
:101A700004C08BE891E060E21FD6740197FE02C0BB
:101A8000EE24FF24442011F0DD2041F089E791E0AD
:101A9000B70145E02CE300E025D604C089E791E0DA
:101AA00060E20AD6BB2011F0DD2049F0652D70E020
:101AB0008CE791E044E020E00EE314D604C08CE70C
:101AC00091E060E2F9D58BEA91E0B70142E223E2CE
:101AD00004E2AAD6652D70E086EA91E043E624E6AA
:101AE00005E6A2D6E090AC04F090AD0480914804E5
:101AF00090914904E81AF90AF7FE04C088E691E0DB
:101B0000E80EF91E1091BF0117FF35C0C7011CD7A1
:101B100016FF03C0B0E8CB2E01C0CC248090BD01DD
:101B20007090BE0160915104082F10E0F801EE0F93
:101B3000FF1FEA5AFC4F25913491B82CB20E672C46
:101B4000630E8091520490D5FC011082872D682D80
:101B50008BD52C2D2162FC012083862D6B2D84D505
:101B6000DC010A591C4FF80104910C290C93B09226
:101B70005104609252048090AC049090AD04609047
:101B80004804709049048091AE049091AF04209174
:101B9000BC0127FF74C0E2EBF1E040E021913191FC
:101BA0008217930718F04F5F4530C1F7842F90E0FC
:101BB000880F991F0196889F9001899F300D989FEB
:101BC000300D11243595279535952795B22E00E0D7
:101BD00010E0C42EC394B801680D791D8C2DAE01A0
:101BE0004F5F5F4F9E012E5F3F4F62D6B81690F455
:101BF000B401601B710B8C2DAE014F5F5F4F9E01D6
:101C00002E5F3F4F55D6B81628F40F5F1F4F083090
:101C1000110509F78091BC0186FF03C070E8C72E4B
:101C200001C0CC24B090B0018090B10109810B0DAE
:101C300009831A81180D1A83F52DF23028F0C3019B
:101C400083D6282F225901C02CE680915004609140
:101C50004F042E8309D5FC011082882D6B2D04D5ED
:101C60003C2D3162FC013083812F602FFDD42E8109
:101C7000C22AFC01C08200934F041093500480914B
:101C80008A0187FF18C0C7015FD6082F055AF4EBF9
:101C9000EF16F10434F488E891E0B70143E020E264
:101CA00009C068E671E06E197F0988E891E043E0B9
:101CB000202F00E217D5B0907804C0909001C7FEA5
:101CC00022C080918F0160918E01CED48C01C6FE1E
:101CD00002C020E801C020E0BB2069F0822F8962A9
:101CE000F8018083C7012E832FD6855A2E81822B3F
:101CF000F801818308C0DD2011F088E201C080E294
:101D0000282BF80120831092CB0115CC1F920F9243
:101D10000FB60F9211242F933F934F935F936F93BE
:101D20007F938F939F93AF93BF93EF93FF9384E23F
:101D30008A95F1F74A9988C080910E018F5F909142
:101D40006C01981718F080930E0184C02091C9018E
:101D5000213108F07FC03091CA01E22FF0E0E55A4E
:101D6000FE4F8081682F685F381708F45AC0361715
:101D700008F057C0932F981B80911401882321F4F9
:101D80008AE08A95F1F703C08DE08A95F1F700C0EB
:101D9000A3E22A9FD0011124A453BE4F86E5989F49
:101DA000C00111248C5C9F4F43E25D91552351F09B
:101DB000752F7F777052FC01E70FF11DE49157FDFD
:101DC0000CC00DC00000000000000000000000007A
:101DD000000000000000E0E002C0219A02C021984B
:101DE0000000EEBD00000000000000000000000048
:101DF000000000000000415009F0D7CF00000000B3
:101E000000000000000000000000000000000000D2
:101E100000000000000000000000000000001EBCE8
:101E20002198832F8F5F8F3F09F4832F861739F412
:101E30002F5F213121F4909119019093CB012093D0
:101E4000C9018093CA0106C01092CA0110920E0106
:101E50001092C9018091C00087FF10C080911F04BB
:101E60009091C600E82FF0E0E05EFB4F90838F5F1B
:101E700080931F048C3110F010921F04FF91EF919A
:101E8000BF91AF919F918F917F916F915F914F9192
:101E90003F912F910F900FBE0F901F901895629F4A
:101EA000D001739FF001829FE00DF11D649FE00D52
:101EB000F11D929FF00D839FF00D749FF00D659FB3
:101EC000F00D9927729FB00DE11DF91F639FB00DB2
:101ED000E11DF91FBD01CF0111240895991B79E07F
:101EE00004C0991F961708F0961B881F7A95C9F7AA
:101EF00080950895AA1BBB1B51E107C0AA1FBB1FF9
:101F0000A617B70710F0A61BB70B881F991F5A9585
:101F1000A9F780959095BC01CD01089597FB092EF6
:101F200007260AD077FD04D0E5DF06D000201AF49A
:101F3000709561957F4F0895F6F7909581959F4F25
:101F40000895A1E21A2EAA1BBB1BFD010DC0AA1FFA
:101F5000BB1FEE1FFF1FA217B307E407F50720F012
:101F6000A21BB30BE40BF50B661F771F881F991F8D
:101F70001A9469F760957095809590959B01AC01D6
:101F8000BD01CF01089597FB092E05260ED057FD00
:101F900004D0D7DF0AD0001C38F450954095309516
:101FA00021953F4F4F4F5F4F0895F6F790958095DD
:101FB000709561957F4F8F4F9F4F0895DC01CB0146
:101FC000FC01F999FECF06C0F2BDE1BDF89A319649
:101FD00000B40D9241505040B8F70895F894FFCFE7
:0E1FE0004750474741004750524D4300FF0015
:00000001FF
